<!DOCTYPE html>
<html lang="en-US">
  <head>
    <meta charset="utf-8">
    <meta name="viewport" content="width=device-width,initial-scale=1">
    <title>HOW TO USE THE SNICKER FEATURES IN JOINMARKET | JoinMarket Docs</title>
    <meta name="generator" content="VuePress 1.8.2">
    <link rel="icon" href="/joinMarketDocs/favicon.ico">
    <meta name="description" content="Make a coinjoin at any time">
    
    <link rel="preload" href="/joinMarketDocs/assets/css/0.styles.996e850d.css" as="style"><link rel="preload" href="/joinMarketDocs/assets/js/app.e9235a0d.js" as="script"><link rel="preload" href="/joinMarketDocs/assets/js/2.7c41aff4.js" as="script"><link rel="preload" href="/joinMarketDocs/assets/js/17.258eeff4.js" as="script"><link rel="prefetch" href="/joinMarketDocs/assets/js/10.b37aa437.js"><link rel="prefetch" href="/joinMarketDocs/assets/js/11.5a852c33.js"><link rel="prefetch" href="/joinMarketDocs/assets/js/12.e48f53cf.js"><link rel="prefetch" href="/joinMarketDocs/assets/js/13.a1a92b0d.js"><link rel="prefetch" href="/joinMarketDocs/assets/js/14.e709f4da.js"><link rel="prefetch" href="/joinMarketDocs/assets/js/15.b254ff06.js"><link rel="prefetch" href="/joinMarketDocs/assets/js/16.476e3e08.js"><link rel="prefetch" href="/joinMarketDocs/assets/js/18.0d170829.js"><link rel="prefetch" href="/joinMarketDocs/assets/js/19.c48459bd.js"><link rel="prefetch" href="/joinMarketDocs/assets/js/20.c8df477f.js"><link rel="prefetch" href="/joinMarketDocs/assets/js/21.b79fd644.js"><link rel="prefetch" href="/joinMarketDocs/assets/js/22.7969ece1.js"><link rel="prefetch" href="/joinMarketDocs/assets/js/23.fc5bc4d3.js"><link rel="prefetch" href="/joinMarketDocs/assets/js/24.4055c4d6.js"><link rel="prefetch" href="/joinMarketDocs/assets/js/25.9f433537.js"><link rel="prefetch" href="/joinMarketDocs/assets/js/26.208be24b.js"><link rel="prefetch" href="/joinMarketDocs/assets/js/27.e6aa6982.js"><link rel="prefetch" href="/joinMarketDocs/assets/js/28.1e0e9743.js"><link rel="prefetch" href="/joinMarketDocs/assets/js/29.72499ef8.js"><link rel="prefetch" href="/joinMarketDocs/assets/js/3.79700d29.js"><link rel="prefetch" href="/joinMarketDocs/assets/js/30.e62484ec.js"><link rel="prefetch" href="/joinMarketDocs/assets/js/4.4637ac25.js"><link rel="prefetch" href="/joinMarketDocs/assets/js/5.d4e70881.js"><link rel="prefetch" href="/joinMarketDocs/assets/js/6.d3d3badf.js"><link rel="prefetch" href="/joinMarketDocs/assets/js/7.6641a9e7.js"><link rel="prefetch" href="/joinMarketDocs/assets/js/8.5e2f325d.js"><link rel="prefetch" href="/joinMarketDocs/assets/js/9.dc670b41.js">
    <link rel="stylesheet" href="/joinMarketDocs/assets/css/0.styles.996e850d.css">
  </head>
  <body>
    <div id="app" data-server-rendered="true"><div class="theme-container"><header class="navbar"><div class="sidebar-button"><svg xmlns="http://www.w3.org/2000/svg" aria-hidden="true" role="img" viewBox="0 0 448 512" class="icon"><path fill="currentColor" d="M436 124H12c-6.627 0-12-5.373-12-12V80c0-6.627 5.373-12 12-12h424c6.627 0 12 5.373 12 12v32c0 6.627-5.373 12-12 12zm0 160H12c-6.627 0-12-5.373-12-12v-32c0-6.627 5.373-12 12-12h424c6.627 0 12 5.373 12 12v32c0 6.627-5.373 12-12 12zm0 160H12c-6.627 0-12-5.373-12-12v-32c0-6.627 5.373-12 12-12h424c6.627 0 12 5.373 12 12v32c0 6.627-5.373 12-12 12z"></path></svg></div> <a href="/joinMarketDocs/" class="home-link router-link-active"><!----> <span class="site-name">JoinMarket Docs</span></a> <div class="links"><div class="search-box"><input aria-label="Search" autocomplete="off" spellcheck="false" value=""> <!----></div> <nav class="nav-links can-hide"> <a href="https://github.com/clay-v/joinMarketDocs" target="_blank" rel="noopener noreferrer" class="repo-link">
    Contribute
    <span><svg xmlns="http://www.w3.org/2000/svg" aria-hidden="true" focusable="false" x="0px" y="0px" viewBox="0 0 100 100" width="15" height="15" class="icon outbound"><path fill="currentColor" d="M18.8,85.1h56l0,0c2.2,0,4-1.8,4-4v-32h-8v28h-48v-48h28v-8h-32l0,0c-2.2,0-4,1.8-4,4v56C14.8,83.3,16.6,85.1,18.8,85.1z"></path> <polygon fill="currentColor" points="45.7,48.7 51.3,54.3 77.2,28.5 77.2,37.2 85.2,37.2 85.2,14.9 62.8,14.9 62.8,22.9 71.5,22.9"></polygon></svg> <span class="sr-only">(opens new window)</span></span></a></nav></div></header> <div class="sidebar-mask"></div> <aside class="sidebar"><nav class="nav-links"> <a href="https://github.com/clay-v/joinMarketDocs" target="_blank" rel="noopener noreferrer" class="repo-link">
    Contribute
    <span><svg xmlns="http://www.w3.org/2000/svg" aria-hidden="true" focusable="false" x="0px" y="0px" viewBox="0 0 100 100" width="15" height="15" class="icon outbound"><path fill="currentColor" d="M18.8,85.1h56l0,0c2.2,0,4-1.8,4-4v-32h-8v28h-48v-48h28v-8h-32l0,0c-2.2,0-4,1.8-4,4v56C14.8,83.3,16.6,85.1,18.8,85.1z"></path> <polygon fill="currentColor" points="45.7,48.7 51.3,54.3 77.2,28.5 77.2,37.2 85.2,37.2 85.2,14.9 62.8,14.9 62.8,22.9 71.5,22.9"></polygon></svg> <span class="sr-only">(opens new window)</span></span></a></nav>  <ul class="sidebar-links"><li><a href="/joinMarketDocs/users/" aria-current="page" class="sidebar-link">Introduction</a></li><li><section class="sidebar-group depth-0"><p class="sidebar-heading"><span>Installation</span> <!----></p> <ul class="sidebar-links sidebar-group-items"><li><section class="sidebar-group is-sub-group depth-1"><a href="/joinMarketDocs/users/joininbox" class="sidebar-heading clickable open"><span>Joininbox</span> <!----></a> <ul class="sidebar-links sidebar-group-items"><li><a href="/joinMarketDocs/users/install-virtual-machine.html" class="sidebar-link">Virtual Machine</a></li><li><a href="https://github.com/openoms/joininbox#required-hardware" target="_blank" rel="noopener noreferrer" class="sidebar-link">Dedicated Hardware<span><svg xmlns="http://www.w3.org/2000/svg" aria-hidden="true" focusable="false" x="0px" y="0px" viewBox="0 0 100 100" width="15" height="15" class="icon outbound"><path fill="currentColor" d="M18.8,85.1h56l0,0c2.2,0,4-1.8,4-4v-32h-8v28h-48v-48h28v-8h-32l0,0c-2.2,0-4,1.8-4,4v56C14.8,83.3,16.6,85.1,18.8,85.1z"></path> <polygon fill="currentColor" points="45.7,48.7 51.3,54.3 77.2,28.5 77.2,37.2 85.2,37.2 85.2,14.9 62.8,14.9 62.8,22.9 71.5,22.9"></polygon></svg> <span class="sr-only">(opens new window)</span></span></a></li></ul></section></li><li><a href="/joinMarketDocs/users/install-manual.html" class="sidebar-link">Manual Installation</a></li></ul></section></li><li><a href="/joinMarketDocs/users/JOINMARKET-QT-GUIDE.html" class="sidebar-link">Getting Started</a></li><li><section class="sidebar-group depth-0"><p class="sidebar-heading open"><span>User Guide</span> <!----></p> <ul class="sidebar-links sidebar-group-items"><li><a href="/joinMarketDocs/users/architecture-notes.html" class="sidebar-link">Architecture Notes</a></li><li><a href="/joinMarketDocs/users/config-irc-update.html" class="sidebar-link">IRC Configuration</a></li><li><a href="/joinMarketDocs/users/fidelity-bonds.html" class="sidebar-link">Fidelity Bonds</a></li><li><a href="/joinMarketDocs/users/NATIVE-SEGWIT-UPGRADE.html" class="sidebar-link">Native Segwit Upgrade</a></li><li><a href="/joinMarketDocs/users/orderbook.html" class="sidebar-link">Orderbook</a></li><li><a href="/joinMarketDocs/users/PAYJOIN.html" class="sidebar-link">Payjoin</a></li><li><a href="/joinMarketDocs/users/SNICKER.html" aria-current="page" class="active sidebar-link">SNICKER</a><ul class="sidebar-sub-headers"><li class="sidebar-sub-header"><a href="/joinMarketDocs/users/SNICKER.html#basic-concepts-and-definition" class="sidebar-link">Basic concepts and definition</a></li><li class="sidebar-sub-header"><a href="/joinMarketDocs/users/SNICKER.html#updating-config" class="sidebar-link">Updating config</a></li><li class="sidebar-sub-header"><a href="/joinMarketDocs/users/SNICKER.html#alternative-to-mainnet-usage" class="sidebar-link">Alternative to mainnet usage</a></li><li class="sidebar-sub-header"><a href="/joinMarketDocs/users/SNICKER.html#running-snicker-as-a-receiver" class="sidebar-link">Running SNICKER as a receiver</a></li><li class="sidebar-sub-header"><a href="/joinMarketDocs/users/SNICKER.html#use-of-wallets" class="sidebar-link">Use of wallets</a></li><li class="sidebar-sub-header"><a href="/joinMarketDocs/users/SNICKER.html#checking-for-snicker-coinjoins" class="sidebar-link">Checking for SNICKER coinjoins</a></li><li class="sidebar-sub-header"><a href="/joinMarketDocs/users/SNICKER.html#a-testing-workflow" class="sidebar-link">A testing workflow</a></li><li class="sidebar-sub-header"><a href="/joinMarketDocs/users/SNICKER.html#appendix-example-snicker-transaction" class="sidebar-link">Appendix: Example SNICKER transaction</a></li></ul></li><li><a href="/joinMarketDocs/users/SOURCING-COMMITMENTS.html" class="sidebar-link">Sourcing Commitments</a></li><li><a href="/joinMarketDocs/users/TODO.html" class="sidebar-link">Todo</a></li><li><a href="/joinMarketDocs/users/TESTING.html" class="sidebar-link">Testing</a></li><li><a href="/joinMarketDocs/users/tumblerguide.html" class="sidebar-link">Tumbler Guide</a></li><li><a href="/joinMarketDocs/users/USAGE.html" class="sidebar-link">USAGE</a></li><li><a href="/joinMarketDocs/users/YIELDGENERATOR.html" class="sidebar-link">Yield Generator</a></li></ul></section></li><li><section class="sidebar-group depth-0"><p class="sidebar-heading"><span>Developer Guide</span> <!----></p> <ul class="sidebar-links sidebar-group-items"><li><a href="/joinMarketDocs/developers/ArchOverview.html" class="sidebar-link">Arch Overview</a></li><li><a href="/joinMarketDocs/developers/High-level-design.html" class="sidebar-link">High-level Design</a></li><li><a href="/joinMarketDocs/developers/Joinmarket-messaging-protocol.html" class="sidebar-link">Joinmarket Messaging Protocol</a></li></ul></section></li></ul> </aside> <main class="page"> <div class="theme-default-content content__default"><h1 id="how-to-use-the-snicker-features-in-joinmarket"><a href="#how-to-use-the-snicker-features-in-joinmarket" class="header-anchor">#</a> HOW TO USE THE SNICKER FEATURES IN JOINMARKET</h1> <h1 id="contents"><a href="#contents" class="header-anchor">#</a> Contents</h1> <ol><li><p><a href="#basic">Basic concepts and definition</a></p> <p>a. <a href="#quick">Quick read: advice</a></p> <p>b. <a href="#longer">Slightly longer description</a></p> <p>c. <a href="#pow">Proof of work for anti-spam</a></p> <p>d. <a href="#servers">Servers</a></p> <p>e. <a href="#scripts">New script tools</a></p></li> <li><p><a href="#configure">Updating config</a></p></li> <li><p><a href="#network">Alternative to mainnet usage</a></p></li> <li><p><a href="#receiver">Running SNICKER as a receiver</a></p> <p>a. <a href="#manually">Manually running the receiver</a></p> <p>b. <a href="#yieldgen">Running a yield-generator with SNICKER active</a></p></li> <li><p><a href="#wallets">Use of wallets</a></p></li> <li><p><a href="#checking">Checking for SNICKER coinjoins</a></p></li> <li><p><a href="#testing">A testing workflow</a></p></li> <li><p><a href="#appendix1">Appendix: Example SNICKER transaction</a></p></li></ol> <a name="basic"></a> <h2 id="basic-concepts-and-definition"><a href="#basic-concepts-and-definition" class="header-anchor">#</a> Basic concepts and definition</h2> <a name="quick"></a> <h3 id="quick-read-advice"><a href="#quick-read-advice" class="header-anchor">#</a> Quick read: advice</h3> <p>For the time constraints, consider these points:</p> <ul><li>This is <em>somewhat</em> experimental; better run it on signet for now, mainnet is not advised.</li> <li>If you do run it on mainnet, make an effort to keep backups of your jmdat wallet file; recovery with seed only is possible (a tool is provided), but it's a pain.</li> <li>This basically allows coinjoins to be proposed and executed without any interaction by the participants, even over a message channel. You can run it passsively in a yield generator, for example. You can even be paid some small amount of sats for that to happen. But the coinjoins are only 2-party.</li></ul> <a name="longer"></a> <h3 id="slightly-longer-read-on-what-this-is"><a href="#slightly-longer-read-on-what-this-is" class="header-anchor">#</a> Slightly longer read on what this is:</h3> <p>For formal specs as currently implemented, please use <a href="https://gist.github.com/AdamISZ/2c13fb5819bd469ca318156e2cf25d79" target="_blank" rel="noopener noreferrer">this<span><svg xmlns="http://www.w3.org/2000/svg" aria-hidden="true" focusable="false" x="0px" y="0px" viewBox="0 0 100 100" width="15" height="15" class="icon outbound"><path fill="currentColor" d="M18.8,85.1h56l0,0c2.2,0,4-1.8,4-4v-32h-8v28h-48v-48h28v-8h-32l0,0c-2.2,0-4,1.8-4,4v56C14.8,83.3,16.6,85.1,18.8,85.1z"></path> <polygon fill="currentColor" points="45.7,48.7 51.3,54.3 77.2,28.5 77.2,37.2 85.2,37.2 85.2,14.9 62.8,14.9 62.8,22.9 71.5,22.9"></polygon></svg> <span class="sr-only">(opens new window)</span></span></a>. Less technical description <a href="https://joinmarket.me/blog/blog/snicker/" target="_blank" rel="noopener noreferrer">here<span><svg xmlns="http://www.w3.org/2000/svg" aria-hidden="true" focusable="false" x="0px" y="0px" viewBox="0 0 100 100" width="15" height="15" class="icon outbound"><path fill="currentColor" d="M18.8,85.1h56l0,0c2.2,0,4-1.8,4-4v-32h-8v28h-48v-48h28v-8h-32l0,0c-2.2,0-4,1.8-4,4v56C14.8,83.3,16.6,85.1,18.8,85.1z"></path> <polygon fill="currentColor" points="45.7,48.7 51.3,54.3 77.2,28.5 77.2,37.2 85.2,37.2 85.2,14.9 62.8,14.9 62.8,22.9 71.5,22.9"></polygon></svg> <span class="sr-only">(opens new window)</span></span></a>.</p> <p>Essentially, this is a two party but non-interactive protocol. The <strong>proposer</strong> will identify, on the blockchain, a candidate transaction where he has some confidence that one or more inputs are owned by the same party as one output, and that that party has SNICKER receiver functionality.
Given those conditions, he'll create one or more <strong>proposals</strong> which are of form <code>base64-encoded-ECIES-encrypted-PSBT,hex-encoded-pubkey</code> (the separator is literally a comma; this is ASCII encoded), and send them to a <strong>snicker-server</strong> which is hosted at an onion address (possibly TLS but let's stick with onion for now, it's easier). They could also be sent manually. We'll talk more about these two possibilities below.</p> <p>To understand the step-by-step of how this is done &quot;under the hood&quot;, you may find the <a href="#testing">section on testing</a> a useful read. If you're only interested in &quot;switching on this feature&quot;, notice this is not advised on mainnet (see the section on <a href="#network">alternatives to mainnet</a>), but read more below about editing the config and switching it on in a yieldgenerator.</p> <a name="pow"></a> <h3 id="proof-of-work-for-mild-anti-spam"><a href="#proof-of-work-for-mild-anti-spam" class="header-anchor">#</a> Proof of work for mild anti-spam</h3> <p>As implemented here, in fact, the proposer attaches a proof of work in the form of a 10-byte nonce appended to the end of the above string (hex encoded; so in fact: <code>base64-encoded-ECIES-encrypted-PSBT,hex-encoded-pubkey,hex-encoded-nonce</code> is what is sent over the wire). This nonce is grinded to get a 32-byte-truncated-hash512 of that string to be less than a target calculated by a request number of bits from the server. The target bits is requested by the proposer with a <code>GET /target</code> request to the server, before sending the proposals themselves with a <code>POST /</code> request with the proposals in the body. For the proof of work, see <code>jmbase/jmbase/proof_of_work.py</code>; it's pretty elementary. Note of course this is no defence against a serious attempt to jam the system, it's only a &quot;script-kiddie-defence&quot;, so to speak.</p> <a name="servers"></a> <h3 id="servers"><a href="#servers" class="header-anchor">#</a> Servers</h3> <p>The <strong>snicker-server</strong> just hosts the proposals and lets others read them. For the purpose of testing it's fine that we don't have a very sophisticated version of this, but for now note:</p> <ul><li>You can run tests using the <code>-n</code> option of <code>create-snicker-proposal.py</code> to just output to terminal instead of uploading to server; this may be in particular more useful for local tests where it's only your own wallets involved.</li> <li>The server serves only over a Tor hidden service.</li> <li>It stores the accepted proposals in a sqlite3 database <code>proposals.db</code>. The table is <code>proposals</code> and has only two fields: <code>pubkey</code> and <code>proposal</code> (see above).</li> <li>Defends against spam with proof of work as per above (this is very limited but better than nothing).</li> <li>Currently has NO maintenance or performance feature such as flushing out proposals after a time limit, or allowing filtered queries. This seems the most obvious way to improve what exists, here.</li></ul> <a name="scripts"></a> <h3 id="new-script-tools"><a href="#new-script-tools" class="header-anchor">#</a> New script tools</h3> <p>The new tools for SNICKER are in the directory <code>scripts/snicker</code>, consisting of:</p> <ul><li><code>snicker-seed-tx.py</code> - create a fake SNICKER transaction in your own wallet.</li> <li><code>snicker-finder.py</code> - scan recent blocks for Joinmarket or SNICKER candidate transactions.</li> <li><code>create-snicker-proposal.py</code> - takes transactions found from the above and makes proposals, uploading them to a server or outputting to command line.</li> <li><code>snicker-server.py</code> - implements a simple server serving over *.onion, with a sqlite database to store proposals, and defends against spam only mildly with a proof of work requirement (see below).</li> <li><code>receive-snicker.py</code> - polls above server to read new proposals, parse them and broadcasts completed SNICKER coinjoins when found, storing the new keys as imports (see details on wallet handling below).</li> <li><code>snicker-recovery.py</code> - can be used to recover a wallet from seedphrase which contains SNICKER utxos, though it needs (possibly multiple) rescanblockchain calls (and informs the user how to do this, including blockheights).</li></ul> <a name="configure"></a> <h2 id="updating-config"><a href="#updating-config" class="header-anchor">#</a> Updating config</h2> <p>Recreate your joinmarket.cfg in the usual way. You can then edit the new <code>[SNICKER]</code> section as desired:</p> <div class="language- extra-class"><pre class="language-text"><code>[SNICKER]

# any other value than 'true' will be treated as False,
# and no SNICKER actions will be enabled in that case:
enabled = false

# in satoshis, we require any SNICKER to pay us at least
# this much (can be negative), otherwise we will refuse
# to sign it:
lowest_net_gain = 0

# comma separated list of servers (if port is omitted as :port, it
# is assumed to be 80) which we will poll against (all, in sequence); note
# that they are allowed to be *.onion or cleartext servers, and no
# scheme (http(s) etc) needs to be added to the start.
servers = cn5lfwvrswicuxn3gjsxoved6l2gu5hdvwy5l3ev7kg6j7lbji2k7hqd.onion,

# how many minutes between each polling event to each server above:
polling_interval_minutes = 60
</code></pre></div><p>Notice that it is of course <em>NOT</em> enabled by default, so switch that to <code>true</code>.</p> <p>If you are running tests, a 60 minute polling interval is slow, feel free to cut it down to a minute or two.</p> <p>The default server is currently running on a VPS. As mentioned above, you can easily run your own server with <code>snicker-server.py</code>. It is possible to poll multiple servers, comma separated in the list.</p> <a name="network"></a> <h2 id="alternative-to-mainnet-usage"><a href="#alternative-to-mainnet-usage" class="header-anchor">#</a> Alternative to mainnet usage</h2> <p>Choosing the network for this function means editing the <code>[BLOCKCHAIN]</code> section in <code>joinmarket.cfg</code>, just as for other Joinmarket functionality.</p> <p><strong>Regtest</strong> is a good option if you are interested in testing functionality quickly, on your own. See <a href="/joinMarketDocs/users/TESTING.html">here</a> for some info on regtest setup.</p> <p><strong>Signet</strong> (a new testnet) will be helpful especially if you intend to test with others. This can be done by simply sharing proposals as per the <code>-n</code> comments above, or by sharing proposal server locations as onion addresses, and possibly communicating with other testers to identify candidate transactions (obviously this strays far from the intended way SNICKER will be used, but it is convenient to test workflow).
For more information about using Joinmarket with signet, see the <a href="/joinMarketDocs/users/release-notes/release-notes-0.8.1.html">0.8.1 release notes</a> and <a href="https://gist.github.com/AdamISZ/325716a66c7be7dd3fc4acdfce449fb1" target="_blank" rel="noopener noreferrer">this gist<span><svg xmlns="http://www.w3.org/2000/svg" aria-hidden="true" focusable="false" x="0px" y="0px" viewBox="0 0 100 100" width="15" height="15" class="icon outbound"><path fill="currentColor" d="M18.8,85.1h56l0,0c2.2,0,4-1.8,4-4v-32h-8v28h-48v-48h28v-8h-32l0,0c-2.2,0-4,1.8-4,4v56C14.8,83.3,16.6,85.1,18.8,85.1z"></path> <polygon fill="currentColor" points="45.7,48.7 51.3,54.3 77.2,28.5 77.2,37.2 85.2,37.2 85.2,14.9 62.8,14.9 62.8,22.9 71.5,22.9"></polygon></svg> <span class="sr-only">(opens new window)</span></span></a>.</p> <p><strong>Testnet3</strong> - it may be possible but it will be far less convenient than signet.</p> <p><strong>Mainnet</strong> - as of Feb 2021, this isn't recommended yet; it should in theory work no different, but any usage would be at your own risk.</p> <a name="receiver"></a> <h2 id="running-snicker-as-a-receiver"><a href="#running-snicker-as-a-receiver" class="header-anchor">#</a> Running SNICKER as a receiver</h2> <p>The <strong>receiver</strong> (unless handling manually with <code>-n</code> as per above) polls this server (for testing, you can make the polling loop fast; in real usage it should be slow), reads all the existing proposals using a <code>GET /</code> request with no parameters, and if it can decrypt and sanity check the transaction OK, it co-signs it and broadcasts it. Note: <em>the receiver wallet will store its new coins output from the coinjoin, as imported keys; they are not part of the HD tree, although derivable from history</em>. See <code>use of wallets</code> below for important notes on this aspect.</p> <a name="manually"></a> <h3 id="manually-running-the-receiver"><a href="#manually-running-the-receiver" class="header-anchor">#</a> Manually running the receiver</h3> <p>For this you can use the <code>receive-snicker.py</code> script as detailed above, passing the chosen wallet file as argument, and it will &quot;one-shot&quot; poll for proposals and process them, or, you can pass the base64 proposal manually instead.</p> <a name="yieldgen"></a> <h3 id="running-snicker-in-a-yield-generator"><a href="#running-snicker-in-a-yield-generator" class="header-anchor">#</a> Running SNICKER in a yield generator.</h3> <p>This will presumably be the most normal way to be a SNICKER receiver over time; if <code>enabled=true</code> for SNICKER is in the above config settings, this will happen automatically, under the hood. Make sure the polling loop interval is not too fast if you leave this running longer term (even if a test bot). If valid proposals are found that follow our requirements, the transactions are broadcast.</p> <a name="wallets"></a> <h2 id="use-of-wallets"><a href="#use-of-wallets" class="header-anchor">#</a> Use of wallets</h2> <p><strong>Wallet type</strong> - please stick with native segwit (<code>native=true</code> in config <em>before</em> you generate), but you can also choose p2sh-p2wpkh, it should work. No other script type (including p2pkh) will work here. We don't want mixed script type SNICKER coinjoins.</p> <p><strong>Persistence in the wallet</strong> - this is very important and not at all obvious! But, on regtest and testnet <em>by default</em>, we use hex seeds instead of wallet files and <code>VolatileStorage</code> (wallet storage in memory; wiped on shutdown). This is fine and convenient for many tests, but will not work for a key part of SNICKER - imported keys.</p> <p>The upshot - <strong>make sure you actually generate wallet files for all wallets you're going to test SNICKER with</strong>, otherwise you will not even see the created coins on the receiver side.</p> <p>Additionally, when you view the wallet with wallet-tool, you need to use <code>--recoversync</code>, as the default fast sync won't see imported keys. If you took these two steps, your tests should correctly show the post-SNICKER created coins.</p> <a name="checking"></a> <h2 id="checking-for-snicker-coinjoins"><a href="#checking-for-snicker-coinjoins" class="header-anchor">#</a> Checking for SNICKER coinjoins</h2> <p>SNICKER is logged to:</p> <p><code>~/.joinmarket/logs/SNICKER/SNICKER-joinmarket-wallet-xxxxxx.log</code></p> <p>i.e. there is one SNICKER log file for each wallet.
This should show all transactions that were detected and broadcast.</p> <a name="testing"></a> <h2 id="a-testing-workflow"><a href="#a-testing-workflow" class="header-anchor">#</a> A testing workflow</h2> <p>This is a scenario for a single user, using either regtest or signet.</p> <p>Generate a minimum of two joinmarket wallets with <code>python wallet-tool.py generate</code>, as noted above, native (or at least, both the same type).</p> <p>Fund them both. The receiver needs at least two utxos to create the seed transaction.</p> <p>Create a seed fake-SNICKER transaction in the receiver wallet, using the script <code>snicker-seed-tx.py</code>.</p> <p>Start the test server. Navigate to <code>scripts/snicker</code> and run <code>python snicker-server.py</code> - no arguments should be needed, and this will generate an onion running serving on port 80; the onion hostname is displayed:</p> <div class="language- extra-class"><pre class="language-text"><code>(jmvenv) waxwing@here~/testjminstall/joinmarket-clientserver/scripts/snicker$ python snicker-server.py 
User data location: 
Attempting to start onion service on port: 80 ...
Your hidden service is available: 
xpkqk2cy2h2ay5iecwcod5ka36nxj2tsiyczk2w5c6o7h5g57w3xg4id.onion
</code></pre></div><p>This is ephemeral, obviously we intend the real servers to be long-running. The one in the default config should exist and be long-running already, but of course your tests don't need to rely on this. Add:</p> <div class="language- extra-class"><pre class="language-text"><code>
[SNICKER]
enabled = true
servers= xpkqk2cy2h2ay5iecwcod5ka36nxj2tsiyczk2w5c6o7h5g57w3xg4id.onion,
</code></pre></div><p>... to a <code>joinmarket.cfg</code> that you add inside <code>scripts/snicker</code>, by copying it from <code>scripts/</code> or wherever you keep your testing <code>joinmarket.cfg</code> file. (This manual annoyance is part of testing, it won't be needed in mainnet usage of course ... alternatively just put a signet/regtest custom <code>joinmarket.cfg</code> in your <code>.joinmarket</code> folder, but this is hardly less annoying).</p> <p><code>servers=</code> requires a comma separated list.</p> <p>You're now ready to do the two steps: (a) create a proposal and upload it, (b) download proposals (as the receiver identity/wallet) and complete coinjoins. It could be different people doing (a) and (b) of course but here we're assuming one tester doing everything (see two wallets above).</p> <h3 id="creating-one-or-more-proposals"><a href="#creating-one-or-more-proposals" class="header-anchor">#</a> Creating one or more proposals</h3> <p>Having done the above seed transaction, do a scan operation to find the candidate:</p> <p><code>cd script/snicker; python snicker-finder.py --datadir=. 330</code></p> <p>Here, 330 is the starting block number on my regtest blockchain; the ending block is the current block. On signet use a block explorer to find current height (or <code>bitcoin-cli getblockchaininfo</code>). It will look for all transactions with a SNICKER pattern and you should see returned something like this:</p> <div class="language- extra-class"><pre class="language-text"><code>2020-12-28 16:09:04,329 [INFO]  Finished processing block: 790
2020-12-28 16:09:04,334 [INFO]  Found SNICKER transaction: 32f80807b3ba4ca477b25e8ab608a8a3134a34c8c3787cad95c653d1805d7533 in block: 791
2020-12-28 16:09:04,338 [INFO]  Finished processing block: 791
2020-12-28 16:09:04,340 [INFO]  Finished processing block: 792
done
</code></pre></div><p>Then look in <code>./candidates.txt</code> to find the details of the identified transaction, including its full hex, which you need to copy:</p> <div class="language- extra-class"><pre class="language-text"><code>2020-12-16 11:13:01,708 [INFO]  {
    &quot;hex&quot;: &quot;0200000000010138e8a90b3df7740b9d5f5ae9af2cf6769f314d290b2e12bf25bfa4aae2c0cbe20000000000feffffff0280ba8c010000000016001471b09afbac6204627225c10f3a8d4a0749364fdb6d7c36220000000016001447ae59f32c504cbb56e18b77f7842fb58b55025b02473044022075354351ad4c619ba662f9abd25e8ee434f8381795001606a29fa959d36aeb7f022018f8bf1ec0407dad586baeb7e4d977aaacbd8fb15579293e6d739ad69ac3c6cf012103f8e827464fb83209c194376c53ae8f4e7ab5f1baf0948705fec6dd421f2b65c37a020000&quot;,
    &quot;inputs&quot;: [
        .................
Full transaction hex for creating a proposal is found in the above.
The unspent indices are: 0 1 2
</code></pre></div><p>Copy that fully signed transaction hex, and note the unspent outputs. You're going to assume (in this case correctly of course) that all of the inputs are valid options for the SNICKER public key (why? because it was a <em>seed</em> transaction, it was a fake SNICKER, and so all the inputs belonged to the same wallet).</p> <p>At this point you're ready to run the proposal creator:</p> <div class="language- extra-class"><pre class="language-text"><code>python create-encrypted-proposal.py --datadir=. proposerwallet.jmdat &quot;0200000000010138e8a90b3df7740b9d5f5ae9af2cf6769f314d290b2e12bf25bfa4aae2c0cbe20000000000feffffff0280ba8c010000000016001471b09afbac6204627225c10f3a8d4a0749364fdb6d7c36220000000016001447ae59f32c504cbb56e18b77f7842fb58b55025b02473044022075354351ad4c619ba662f9abd25e8ee434f8381795001606a29fa959d36aeb7f022018f8bf1ec0407dad586baeb7e4d977aaacbd8fb15579293e6d739ad69ac3c6cf012103f8e827464fb83209c194376c53ae8f4e7ab5f1baf0948705fec6dd421f2b65c37a020000&quot; 0 1 100 -m1 -n
</code></pre></div><p>Obviously see the <code>--help</code> for details, but in this example we chose:</p> <ul><li>input index 0 to source the pubkey for the encryption.</li> <li>output index 1 for the coin we want the receiver to spend with us in the coinjoin.</li> <li>100 sats as the amount we will bump their output by as an incentive to do the coinjoin (you <em>can</em> make this number negative, to receive, instead - the proposer is paying the tx fee otherwise, note).</li> <li>mixdepth 1 as the mixdepth from which we source <em>our</em> coins for the coinjoin. Make sure of course that mixdepth 1 has at least a little bit more bitcoin than the size of that output at index 1 aforementioned.</li> <li>The <code>-n</code> option can be used to output the proposal to stdout (it is base64+hex so copy-pasteable).</li></ul> <p>If you choose not to use -n, but instead use a proposals server as above, then assuming it connects to the server OK, you will see:</p> <div class="language- extra-class"><pre class="language-text"><code>Response from server: http://xpkqk2cy2h2ay5iecwcod5ka36nxj2tsiyczk2w5c6o7h5g57w3xg4id.onion was: 1 proposals-accepted
</code></pre></div><h3 id="receiving-the-created-proposals"><a href="#receiving-the-created-proposals" class="header-anchor">#</a> Receiving the created proposals.</h3> <p>The last phase is pretty simple, if it works - just run the receiver script (from <code>scripts/snicker</code>) as follows:</p> <div class="language- extra-class"><pre class="language-text"><code>python receive-snicker.py --datadir=. receiver.jmdat [proposal]
User data location: .
2020-12-16 11:43:03,779 [DEBUG]  rpc: getblockchaininfo []
2020-12-16 11:43:03,781 [DEBUG]  rpc: getnewaddress []
Enter passphrase to decrypt wallet: 
2020-12-16 11:43:07,501 [DEBUG]  rpc: listaddressgroupings []
2020-12-16 11:43:07,562 [DEBUG]  Fast sync in progress. Got this many used addresses: 3
2020-12-16 11:43:08,075 [DEBUG]  rpc: listunspent [0]
2020-12-16 11:43:08,216 [DEBUG]  bitcoind sync_unspent took 0.14214825630187988sec
2020-12-16 11:43:08,280 [WARNING]  Cannot listen on port 27183, trying next port
2020-12-16 11:43:08,281 [WARNING]  Cannot listen on port 27184, trying next port
2020-12-16 11:43:08,281 [WARNING]  Cannot listen on port 27185, trying next port
2020-12-16 11:43:08,281 [INFO]  Listening on port 27186
2020-12-16 11:43:08,282 [INFO]  (SNICKER) Listening on port 26186
2020-12-16 11:43:08,282 [INFO]  Starting transaction monitor in walletservice
2020-12-16 11:43:08,339 [INFO]  Starting SNICKER polling loop
2020-12-16 11:43:22,676 [DEBUG]  rpc: sendrawtransaction ['020000000001028ffa6a6f0184ed8123993273ecbb4af82d1b1c0963c815fec4e92525eaba56b30000000000ffffffffa5015509e0e241ef25ee7ccc1936295c908e572cb222105e16c197d66f0599640000000000ffffffff03e4ba8c0100000000160014190ec76b7843f47bc367b65119b98c32074536255dfd5e0a00000000160014d38fa4a6ac8db7495e5e2b5d219dccd412dd9baee4ba8c01000000001600147b4676f859b993257bc8d5880650fcab470db8a1024830450221008480d553177a020f58ca0e45b9e20aa027305a279a3de1014f55ff22909b89b1022054e848285ee60c169b5de19bb4d3637b606ff14bc4cca4506ad05a42fff6af400121029a82a00f05d023f188dfd1db82ef8ec136b0500bbd33bb1f65930c5b74e3199802463043021f01d3f4567c32fc0c5c0cd33db233a3c74100a36940d743b72042b55e60b89d022073ab203ad0fee389f2a2c9e62197244cea95b07ae78a5516ca9f866a8e348d2c01210245d8623c4b06505dffd21bdd314a84b73afe2b9d49a93fe89397b48a85b718bd00000000']
2020-12-16 11:43:22,678 [INFO]  Successfully broadcast SNICKER coinjoin: 33ec857df09030140391529295412434cced8191626024f937426b7859a21947
2020-12-16 11:43:23,359 [INFO]  Removed utxos=
b356baea2525e9c4fe15c863091c1b2df84abbec7332992381ed84016f6afa8f:0 - path: m/84'/1'/4'/0/0, address: bcrt1qwxcf47avvgzxyu39cy8n4r22qaynvn7mc359ap, value: 26000000
2020-12-16 11:43:23,360 [INFO]  Added utxos=
33ec857df09030140391529295412434cced8191626024f937426b7859a21947:0 - path: imported/1/0, address: bcrt1qry8vw6mcg068hsm8keg3nwvvxgr52d3923gg45, value: 26000100
</code></pre></div><p>Obviously this is the ideal case: if no errors occur. If invalid proposals, or proposals on coins that no longer exist because you already spent them, are encountered, logging messages are displayed to that effect.</p> <p>If you did choose the <code>-n</code> option then you can pass the copy-pasted proposal on the command line and it will just process that instead of polling.</p> <h3 id="other-kinds-of-testing"><a href="#other-kinds-of-testing" class="header-anchor">#</a> Other kinds of testing</h3> <p>The above is the baseline workflow. Additionally, you can test:</p> <h4 id="wallet-recovery-from-seed"><a href="#wallet-recovery-from-seed" class="header-anchor">#</a> Wallet recovery from seed</h4> <p>This case is already somewhat tricky in Joinmarket, but for the worst possible scenario of only having a seedphrase and no address imports in the wallet and no Joinmarket jmdat file, and having used SNICKER recently and not spent those coins, recovery is particularly tricky (which is why users who enable this feature must be warned that it's very important not to lose the jmdat file). However even in this case full recovery is possible, using the script <code>snicker-recovery.py</code>. To fully test this try making multiple SNICKER transactions in a wallet, then deleting the jmdat and creating a new Core wallet (on the same regtest instance of course!), enabling it in joinmarket.cfg, then running <code>wallet-tool.py recover</code> with the seedphrase, then running the aforementioned snicker recovery script; it will prompt you to <code>rescanblockchain</code> from certain heights, potentially more than once; the reason for this is that Core cannot find arbitrarily the transactions which spend custom keys which we discover during wallet recovery, we need to import and rescan before going to the next step, although this will only be an edge case.</p> <a name="appendix1"></a> <h2 id="appendix-example-snicker-transaction"><a href="#appendix-example-snicker-transaction" class="header-anchor">#</a> Appendix: Example SNICKER transaction</h2> <p>This is what is produced by <code>print(jmbitcoin.human_readable_transaction(jmbitcoin.CTransaction.deserialize(jmbase.hextobin('020000000001028ffa6a6f0184ed8123993273ecbb4af82d1b1c0963c815fec4e92525eaba56b30000000000ffffffffa5015509e0e241ef25ee7ccc1936295c908e572cb222105e16c197d66f0599640000000000ffffffff03e4ba8c0100000000160014190ec76b7843f47bc367b65119b98c32074536255dfd5e0a00000000160014d38fa4a6ac8db7495e5e2b5d219dccd412dd9baee4ba8c01000000001600147b4676f859b993257bc8d5880650fcab470db8a1024830450221008480d553177a020f58ca0e45b9e20aa027305a279a3de1014f55ff22909b89b1022054e848285ee60c169b5de19bb4d3637b606ff14bc4cca4506ad05a42fff6af400121029a82a00f05d023f188dfd1db82ef8ec136b0500bbd33bb1f65930c5b74e3199802463043021f01d3f4567c32fc0c5c0cd33db233a3c74100a36940d743b72042b55e60b89d022073ab203ad0fee389f2a2c9e62197244cea95b07ae78a5516ca9f866a8e348d2c01210245d8623c4b06505dffd21bdd314a84b73afe2b9d49a93fe89397b48a85b718bd00000000'))))</code>:</p> <div class="language- extra-class"><pre class="language-text"><code>{
    &quot;hex&quot;: &quot;02000000000102578770b2732aed421ffe62d54fd695cf281ca336e4f686d2adbb2e8c3bedb2570000000000ffffffff4719a259786b4237f92460629181edcc3424419592529103143090f07d85ec330100000000ffffffff0324fd9b0100000000160014d38fa4a6ac8db7495e5e2b5d219dccd412dd9bae24fd9b0100000000160014564aead56de8f4d445fc5b74a61793b5c8a819667af6c208000000001600146ec55c2e1d1a7a868b5ec91822bf40bba842bac502473044022078f8106a5645cc4afeef36d4addec391a5b058cc51053b42c89fcedf92f4db1002200cdf1b66a922863fba8dc1b1b1a0dce043d952fa14dcbe86c427fda25e930a53012102f1f750bfb73dbe4c7faec2c9c301ad0e02176cd47bcc909ff0a117e95b2aad7b02483045022100b9a6c2295a1b0f7605381d416f6ed8da763bd7c20f2402dd36b62dd9dd07375002207d40eaff4fc6ee219a7498abfab6bdc54b7ce006ac4b978b64bff960fbf5f31e012103c2a7d6e44acdbd503c578ec7d1741a44864780be0186e555e853eee86e06f11f00000000&quot;,
    &quot;inputs&quot;: [
        {
            &quot;outpoint&quot;: &quot;57b2ed3b8c2ebbadd286f6e436a31c28cf95d64fd562fe1f42ed2a73b2708757:0&quot;,
            &quot;scriptSig&quot;: &quot;&quot;,
            &quot;nSequence&quot;: 4294967295,
            &quot;witness&quot;: &quot;02473044022078f8106a5645cc4afeef36d4addec391a5b058cc51053b42c89fcedf92f4db1002200cdf1b66a922863fba8dc1b1b1a0dce043d952fa14dcbe86c427fda25e930a53012102f1f750bfb73dbe4c7faec2c9c301ad0e02176cd47bcc909ff0a117e95b2aad7b&quot;
            },
        {
            &quot;outpoint&quot;: &quot;33ec857df09030140391529295412434cced8191626024f937426b7859a21947:1&quot;,
            &quot;scriptSig&quot;: &quot;&quot;,
            &quot;nSequence&quot;: 4294967295,
            &quot;witness&quot;: &quot;02483045022100b9a6c2295a1b0f7605381d416f6ed8da763bd7c20f2402dd36b62dd9dd07375002207d40eaff4fc6ee219a7498abfab6bdc54b7ce006ac4b978b64bff960fbf5f31e012103c2a7d6e44acdbd503c578ec7d1741a44864780be0186e555e853eee86e06f11f&quot;
        }
        ],
    &quot;outputs&quot;: [
        {
            &quot;value_sats&quot;: 27000100,
            &quot;scriptPubKey&quot;: &quot;0014d38fa4a6ac8db7495e5e2b5d219dccd412dd9bae&quot;,
            &quot;address&quot;: &quot;bc1q6w86ff4v3km5jhj79dwjr8wv6sfdmxaw2dytjc&quot;
            },
        {
            &quot;value_sats&quot;: 27000100,
            &quot;scriptPubKey&quot;: &quot;0014564aead56de8f4d445fc5b74a61793b5c8a81966&quot;,
            &quot;address&quot;: &quot;bc1q2e9w44tdar6dg30utd62v9unkhy2sxtxtqrthh&quot;
            },
        {
            &quot;value_sats&quot;: 146994810,
            &quot;scriptPubKey&quot;: &quot;00146ec55c2e1d1a7a868b5ec91822bf40bba842bac5&quot;,
            &quot;address&quot;: &quot;bc1qdmz4ctsarfagdz67eyvz906qhw5y9wk9dqpuea&quot;
        }
        ],
    &quot;txid&quot;: &quot;ca606efc5ba8f6669ba15e9262e5d38e745345ea96106d5a919688d1ff0da0cc&quot;,
    &quot;nLockTime&quot;: 0,
    &quot;nVersion&quot;: 2
}
</code></pre></div></div> <footer class="page-edit"><!----> <!----></footer> <div class="page-nav"><p class="inner"><span class="prev">
      ←
      <a href="/joinMarketDocs/users/PAYJOIN.html" class="prev">
        Payjoin
      </a></span> <span class="next"><a href="/joinMarketDocs/users/SOURCING-COMMITMENTS.html">
        Sourcing Commitments
      </a>
      →
    </span></p></div> </main></div><div class="global-ui"></div></div>
    <script src="/joinMarketDocs/assets/js/app.e9235a0d.js" defer></script><script src="/joinMarketDocs/assets/js/2.7c41aff4.js" defer></script><script src="/joinMarketDocs/assets/js/17.258eeff4.js" defer></script>
  </body>
</html>
